S00F000070726F6A6563742E737265631E
S113000029C0000042C0000040C000003EC0000003
S11300103CC000003AC0000038C0000036C00000F8
S113002034C0000032C0000030C000002EC0000008
S11300302CC000002AC0000028C0000026C0000018
S113004024C0000022C0000020C000001EC0000028
S11300501CC0000011241FBECFE5D8E0DEBFCDBF19
S113006011E0A0E6B0E0E0E3F4E002C005900D92F8
S1130070AE30B107D9F711E0AEE0B1E001C01D9296
S1130080AE30B107E1F7E0D0D1C1BACF81B3807F00
S113009081BB81B3806F81BB82B38FEF82BB089534
S11300A084E090E060E041E050E072B39A01082EF1
S11300B002C0220F331F0A94E2F7E22FE0957E2359
S11300C072BBE9EFF0E03197F1F700C0000070B3C4
S11300D07F707F3029F080B38F708F30E1F709C0D3
S11300E032B3232B22BB6F5F01966430F1F68FEF9E
S11300F00895643009F457C06130E1F0613030F0A4
S1130100623059F1633009F050C03AC07B3071F06D
S11301107C3018F4773031F40BC07D3029F07E3018
S113012009F445C08FEF089584E0089581E00895AF
S11301308AE008957B3069F07C3018F4773029F434
S11301400AC07D3021F07E30A1F18FEF089585E063
S1130150089582E0089580E008957B3069F07C3052
S113016018F4773029F40AC07D3021F07E3019F17B
S11301708FEF089586E0089583E008958BE0089555
S11301807B3069F07C3018F4773029F40AC07D3074
S113019021F07E3091F08FEF08958DE008958EE088
S11301A008958FE008958FEF08958FEF089587E005
S11301B0089588E0089589E008958CE008958BBB44
S11301C0C198C29AC09889EF90E00197F1F700C0F6
S11301D00000C09A87EA91E60197F1F700C0000099
S11301E008958BBBC198C298C09889EF90E001979D
S11301F0F1F700C00000C09A87EA91E60197F1F791
S113020000C0000008958FEF8ABB1BBA87E087BB4C
S113021081E088BB88E3E5DF8CE0E3CF81E0E1CFD8
S1130220662311F48058DDCF8054DBCFCF93DF9366
S1130230EC018881882329F02196C1DF89918823E4
S1130240E1F7DF91CF910895CF93DF9300D000D0F1
S1130250CDB7DEB7AF98AF9A8AB38FEF8ABB84B3BA
S11302608F6084BB85B3807F85BB80E885BB81E0DC
S1130270898382E08A8383E08B8384E08C83C3DF79
S113028005DF0F2EF0E6EF2EF0E0FF2EF02D0F2EFF
S1130290F2E7CF2EF0E0DF2EF02D0F2EF4E8AF2E94
S11302A0F0E0BF2EF02D0F2EF6E98F2EF0E09F2EFA
S11302B0F02D0F2EF8EA6F2EF0E07F2EF02D0F2E8A
S11302C0F8EB4F2EF0E05F2EF02D0F2EF9EC2F2ED1
S11302D0F0E03F2EF02DC701A9DF80E061E0A0DF50
S11302E0C601A4DF87EA91E60197F1F700C0000098
S11302F080E061E095DF92DF80E060E091DFC5019E
S113030095DF80E061E08CDFC40190DFA7EAB1E60D
S11303101197F1F700C0000081DFC30187DF80E09F
S113032061E07EDFC20182DF87EA91E60197F1F79F
S113033000C0000080E060E073DF70DFC10176DFA1
S113034000E010E0ADDEE1E0F0E0EC0FFD1FE00FB7
S1130350F11F982F905D90838A3018F48AE22FDF82
S113036002C0015010400F5F1F4F0430110554F3B9
S11303708981813309F03DC08A81823309F039C013
S11303808B818333B1F58C81843399F547DF81ED1B
S113039090E04CDF80E061E043DF81EE90E046DFF7
S11303A04FE35DE063E0415050406040E1F700C03E
S11303B000009F9B13C018C085BB4FE956E861E05D
S11303C0415050406040E1F700C000008F5F8A3028
S11303D099F795BB2150304021F405C023E030E06B
S11303E090E0892FE9CF83B319DF80E060E018DF64
S11303F072CF14DF8DEE90E019DF6FE976E881E0CB
S1130400615070408040E1F700C000008CEF90E044
S11304100DDF8FE996E8A1E081509040A040E1F71C
S113042000C0000080E060E0FBDE55CFF894FFCF11
S113043057656C636F6D65204F75722055736572D7
S1130440200020202020506C65617365202020202E
S11304502020200020202020456E74657220596FD2
S11304607572202020002020202050617373776F44
S113047072642020202020002020746F2061636398
S11304806573732020202000202074686520737712
S113049069746368203A29200070617373203A20DC
S11304A00020796F75722070617373776F726420A6
S11304B00020697320636F72726563740057726FF2
S11304C06E672050617373776F7264002020202060
S11104D020202020202020202020202000009A
S9030000FC
